:100000000C942A000C9447000C9447000C94470071
:100010000C9447000C9447000C9447000C94470044
:100020000C9447000C9447000C9447000C94070173
:100030000C9447000C9447000C9447000C94470024
:100040000C9447000C9447000C9447000C94470014
:100050000C94470011241FBECFE5D4E0DEBFCDBF16
:1000600011E0A0E6B0E0EEE0F1E102C005900D92F3
:10007000AE39B107D9F723E0AEE9B1E001C01D9276
:10008000A83AB207E1F70E945A050C9485080C942F
:100090000000DF9A00C0DF980895CF93DF93D82F38
:1000A000662311F0DD9A01C0DD98DE988AB38F6077
:1000B0008ABBCBB3C07F8D2F82958F708C2B8BBB6F
:1000C0000E944900DF70DC2BDBBB0E944900CF603F
:1000D000CBBBDF91CF910895882311F0DD9A01C049
:1000E000DD98DE9A8AB3807F8ABBDF9A00C099B31D
:1000F000DF9800C0DF9A00C029B32F70892F829546
:10010000807FDF98822B089580E00E946C00882316
:10011000DCF383E090E00197F1F780E00E946C004F
:100120000895CF93C82F0E94840060E08C2F0E9416
:100130004D00CF910895611104C080580E94910034
:10014000089580540E949100089581E00E949100DA
:100150000895CF93C82F0E948400CA3049F4803498
:1001600010F080E001C080E480580E94910004C03B
:1001700061E08C2F0E944D00CF910895CF93DF93C3
:10018000EC012196FC018081882329F00E94A900BE
:1001900089918111FBCFDF91CF9108951F93CF9368
:1001A000DF93182F8AB38F608ABBD59AD69AD79AD5
:1001B00080E393E70197F1F7D99AD89A0E94490012
:1001C00080EF93E20197F1F70E944900C5E7D0E084
:1001D000CE010197F1F70E944900CE010197F1F796
:1001E000D8980E9449002197F1F788E20E94910077
:1001F00088E00E9491000E94A50086E00E94910084
:10020000812F0E949100DF91CF911F9108951F923D
:100210000F920FB60F9211242F938F939F93EF930A
:10022000FF9380919E0190919F012CB1FC01EC55B0
:10023000FE4F20830196811522E0920729F09093CA
:100240009F0180939E0104C010929F0110929E0115
:10025000FF91EF919F918F912F910F900FBE0F9073
:100260001F90189580919E0190919F012091A0016F
:100270003091A101821793071CF0821B930B089504
:10028000821B930B9E5F08955D9BFECF8CB95E9B96
:10029000FECF0895EF92FF920F931F93CF93DF93BA
:1002A000CDB7DEB72C970FB6F894DEBF0FBECDBF2B
:1002B00025E529832AEA2A8321E02B831C824D83AA
:1002C0005E836F83788789879A878E010F5F1F4FC0
:1002D000AE01455F5F4FF80180E090E02191820F11
:1002E000911DE417F507D1F78B879C877E018DE080
:1002F000E80EF11CF80181918F010E9444010E1556
:100300001F05C1F72C960FB6F894DEBF0FBECDBF08
:10031000DF91CF911F910F91FF90EF900895CF93B0
:10032000DF93CDB7DEB72C970FB6F894DEBF0FBEC4
:10033000CDBF04C083E397E00197F1F70E9432013B
:100340000C97C4F38091A0019091A101FE01319618
:1003500020E030E060E070E0DC01AC55BE4F4C9135
:1003600041930196811552E0950711F480E090E0E9
:100370002A30310514F4640F711D2F5F3F4F2C306C
:10038000310551F79093A1018093A0018C8590E0F5
:10039000982F88272B85822B6817790751F00E94A8
:1003A000A50060E080E00E949B0080E690E00E9453
:1003B000BE002E818F8190E0A0E0B0E0DC019927A3
:1003C0008827922B2D81822B2885B22B8093A40322
:1003D0009093A503A093A603B093A7032A8530E0CA
:1003E000322F22274985242B3093A3012093A20189
:1003F0002133310531F58A3020E19207A105B1059D
:1004000001F182319041A105B105D9F40E94A50006
:1004100060E080E00E949B0087E690E00E94BE00C2
:1004200061E080E00E949B008FE690E00E94BE00A9
:100430008FEF9FEB21E2815090402040E1F700C018
:1004400000002C960FB6F894DEBF0FBECDBFDF9133
:10045000CF91089541E050E060E070E082E190E0EB
:100460000E944A010E948F01089540E050E0BA01C5
:1004700081E490E00E944A010E948F010E94A50041
:1004800060E080E00E949B008AE790E00E94BE004E
:1004900061E080E00E949B0088E890E00E94BE003E
:1004A0002FEF8FEB91E2215080409040E1F700C0A8
:1004B00000000895AC01990F660B770B81E290E084
:1004C0000E944A010E948F0181E090E02091A201E8
:1004D0003091A3012033310511F080E090E00895C0
:1004E00040E050E0BA0186E290E00E944A010E949A
:1004F0008F018091A4039091A503A091A603B091D0
:10050000A703892B8A2B8B2B49F480B38295869580
:10051000877091E08927817090E0089580E090E0F5
:1005200008950F931F93CF93DF93CDB7DEB76097F6
:100530000FB6F894DEBF0FBECDBF00E010E0C801DB
:100540000E945A02892B39F00F5F1F4F0C3221E0B5
:100550001207A9F704C00C3281E01807E1F40E94E9
:10056000A50060E080E00E949B0080E690E00E9491
:10057000BE0061E080E00E949B0082E990E00E9462
:10058000BE009FEF2FEF8CE2915020408040E1F7BA
:1005900000C000003CC10E94A50060E080E00E9415
:1005A0009B008FE990E00E94BE0061E080E00E9425
:1005B0009B008FEA90E00E94BE0009C09FEF2FEFE2
:1005C00088E0915020408040E1F700C000000E9488
:1005D0007002892B99F3A801012E000C660B770B92
:1005E00082E290E00E944A010E948F0141E050E0C7
:1005F00060E070E080E690E00E944A010E948F0176
:100600008091A2019091A301C19771F48091A403FC
:100610009091A503A091A603B091A70382319041C8
:10062000A105B10509F4F3C040E050E0BA0183E24E
:1006300090E00E944A010E948F010E94A50060E0A4
:1006400080E00E949B0083EB90E00E94BE0009C006
:100650008FEF9FEF28E0815090402040E1F700C0ED
:1006600000000E947002019799F30E94A50060E0CB
:1006700080E00E949B008FE990E00E94BE0061E054
:1006800080E00E949B0081EC90E00E94BE0009C0C7
:100690008FEF9FEF28E0815090402040E1F700C0AD
:1006A00000000E947002892B99F341E050E060E065
:1006B00070E080E690E00E944A010E948F018091E4
:1006C000A2019091A301C19771F48091A40390912C
:1006D000A503A091A603B091A70382319041A10583
:1006E000B10509F494C040E050E0BA0184E290E022
:1006F0000E944A010E948F010E94A50060E080E0F4
:100700000E949B0083EB90E00E94BE0009C08FEF27
:100710009FEF28E0815090402040E1F700C00000AA
:100720000E947002019799F30E94A50060E080E0AA
:100730000E949B008FE990E00E94BE0061E080E093
:100740000E949B0085EC90E00E94BE0009C08FEFE4
:100750009FEF28E0815090402040E1F700C000006A
:100760000E947002892B99F341E050E060E070E054
:1007700080E690E00E944A010E948F018091A201D0
:100780009091A301C19769F48091A4039091A5036E
:10079000A091A603B091A70382319041A105B105B4
:1007A000B1F140E050E0BA0185E290E00E944A01D8
:1007B0000E948F011F930F9389EC90E09F938F937A
:1007C0008E010F5F1F4F1F930F930E949B050E9486
:1007D000A50060E080E00E949B00C8010E94BE006E
:1007E00061E080E00E949B0085ED90E00E94BE00E9
:1007F0008FEF9FEB21E2815090402040E1F700C055
:1008000000000F900F900F900F900F900F90609638
:100810000FB6F894DEBF0FBECDBFDF91CF911F9111
:100820000F9108950F931F93CF93DF93CDB7DEB74A
:1008300060970FB6F894DEBF0FBECDBF8C010E944B
:10084000A50060E080E00E949B008CED90E00E949B
:10085000BE0009C02FEF8FEF98E0215080409040FC
:10086000E1F700C000000E947002892B99F341E07B
:1008700050E060E070E080E690E00E944A010E9453
:100880008F0141E050E060E070E081E590E00E947F
:100890004A010E948F01012B09F047C08091A201FB
:1008A0009091A301C19799F40E94A50060E080E0B7
:1008B0000E949B008AEE90E00E94BE0061E080E012
:1008C0000E949B0088E091E00E94BE003CC08091A5
:1008D000A7038F938091A6038F938091A5038F9395
:1008E0008091A4038F9388EF90E09F938F938E0164
:1008F0000F5F1F4F1F930F930E949B050E94A5003F
:1009000060E080E00E949B00C8010E94BE0061E0A0
:1009100080E00E949B0085E091E00E94BE000FB63F
:10092000F894DEBF0FBECDBF0EC08091A2019091A2
:10093000A301C19729F08091A4039091A5030DC054
:100940008FEF9FEF0AC09FEF2FE783E49150204085
:100950008040E1F700C00000E8CF60960FB6F89441
:10096000DEBF0FBECDBFDF91CF911F910F910895D4
:100970000F931F93CF93DF93CDB7DEB760970FB67A
:10098000F894DEBF0FBECDBF81E090E00E9412045C
:100990008C018F3F2FEF9207E1F40E94A50060E0E9
:1009A00080E00E949B008AEE90E00E94BE0061E021
:1009B00080E00E949B0088E091E00E94BE008FEFE3
:1009C0009FEB21E2815090402040E1F700C0000001
:1009D00037C0AC01990F660B770B80E490E00E9462
:1009E0004A010E948F011F930F9389EC90E09F931F
:1009F0008F938E010F5F1F4F1F930F930E949B05D4
:100A00000E94A50060E080E00E949B00C8010E9457
:100A1000BE0061E080E00E949B0082E191E00E94C4
:100A2000BE008FEF9FEB21E2815090402040E1F724
:100A300000C000000F900F900F900F900F900F903C
:100A400060960FB6F894DEBF0FBECDBFDF91CF9199
:100A50001F910F9108952FEF8FE392E02150804076
:100A60009040E1F700C0000040E050E0BA0181E0B2
:100A700090E00E944A012FEF8FE392E021508040E6
:100A80009040E1F700C000000E948F0108950E948D
:100A9000A50060E080E00E949B008EE891E00E944B
:100AA000BE0061E080E00E949B0085E991E00E9429
:100AB000BE0008958FEF87BB8FE088BB80E482BBC8
:100AC00080E581BB81E28FBD8AE08EBD8CE390E042
:100AD00099BD88BD8CE00E94CE000E94A50010BC8C
:100AE0008FE289B988E98AB986E880BD78940E9446
:100AF0002B050E942A02B09905C080E090E00E9478
:100B000012040DC0B19903C00E94910208C0B299AD
:100B100003C00E94B80403C0B39B0E9435020E9428
:100B200047052FEF8FEF93E2215080409040E1F78F
:100B300000C00000E0CFAEE0B0E0E1EAF5E00C94E8
:100B40005C080D891E8986E08C831A8309838FEFE8
:100B50009FE79E838D83AE01475E5F4F6F89788DDF
:100B6000CE0101960E94BD05EF81F885E00FF11FCF
:100B700010822E96E4E00C947808ABE0B0E0E3EC51
:100B8000F5E00C944E086C017B018A01FC01178290
:100B90001682838181FFCCC1CE0101963C01F60112
:100BA0009381F70193FD859193FF81917F018823C4
:100BB00009F4BAC1853239F493FD859193FF81918F
:100BC0007F01853229F4B60190E00E94B407E7CF97
:100BD000912C212C312CFFE1F315D8F08B3279F0D8
:100BE00038F4803279F08332A1F4232D20611DC0C6
:100BF0008D3261F0803369F4232D216016C0832D7E
:100C00008260382EE32DE4603E2E2AC0F32DF8607A
:100C10001DC037FC2DC020ED280F2A3040F08E3249
:100C2000B9F436FC81C1232D2064322E19C036FE62
:100C300006C08AE0989E200D1124922E11C0EAE091
:100C40002E9E200D1124222EF32DF0623F2E08C07F
:100C50008C3621F4832D8068382E02C0883641F40A
:100C6000F70193FD859193FF81917F018111B3CFAE
:100C7000982F9F7D9554933028F40C5F1F4F9FE36E
:100C800099830DC0833631F0833771F0833509F0D5
:100C900059C021C0F801808189830E5F1F4F8824CD
:100CA0008394912C530113C02801F2E04F0E511C84
:100CB000F801A080B18036FE03C0692D70E002C04B
:100CC0006FEF7FEFC5010E94A9074C018201F32D50
:100CD000FF773F2E16C0280122E0420E511CF8017A
:100CE000A080B18036FE03C0692D70E002C06FEFB6
:100CF0007FEFC5010E949E074C01F32DF0683F2E47
:100D0000820133FC1BC0822D90E088169906B0F456
:100D1000B60180E290E00E94B4072A94F4CFF50176
:100D200037FC859137FE81915F01B60190E00E940A
:100D3000B40721102A9421E0821A910881149104A9
:100D400071F7E8C0843611F0893641F5F80137FEB5
:100D500007C060817181828193810C5F1F4F08C041
:100D600060817181072E000C880B990B0E5F1F4F5D
:100D7000F32DFF763F2E97FF09C0909580957095D3
:100D800061957F4F8F4F9F4FF0683F2E2AE030E0F4
:100D9000A3010E94F007882E861845C0853731F4DC
:100DA000232D2F7EB22E2AE030E025C0932D997F8F
:100DB000B92E8F36C1F018F4883579F0B5C0803778
:100DC00019F0883721F0B0C0E92FE061BE2EB4FEE3
:100DD0000DC0FB2DF460BF2E09C034FE0AC0292FC0
:100DE0002660B22E06C028E030E005C020E130E0E9
:100DF00002C020E132E0F801B7FE07C060817181D6
:100E0000828193810C5F1F4F06C06081718180E0F9
:100E100090E00E5F1F4FA3010E94F007882E8618F6
:100E2000FB2DFF773F2E36FE0DC0232D2E7FA22EE9
:100E3000891458F434FE0BC032FC09C0832D8E7E19
:100E4000A82E05C0B82CA32C03C0B82C01C0B92C07
:100E5000A4FE0FC0FE01E80DF11D8081803321F456
:100E60009A2D997EA92E09C0A2FE06C0B394B39410
:100E700004C08A2D867809F0B394A3FC11C0A0FEAB
:100E800006C0B21488F4280C922C9B180EC0B21421
:100E900060F4B60180E290E00E94B407B394F7CF0B
:100EA000B21418F42B1802C0982C212CA4FE10C0E8
:100EB000B60180E390E00E94B407A2FE17C0A1FC37
:100EC00003C088E790E002C088E590E0B6010CC05E
:100ED0008A2D867859F0A1FE02C08BE201C080E223
:100EE000A7FC8DE2B60190E00E94B407891438F4A3
:100EF000B60180E390E00E94B4079A94F7CF8A94F9
:100F0000F301E80DF11D8081B60190E00E94B40765
:100F10008110F5CF222009F442CEB60180E290E0A4
:100F20000E94B4072A94F6CFF6018681978102C009
:100F30008FEF9FEF2B96E2E10C946A08FC0105907D
:100F4000615070400110D8F7809590958E0F9F1FCB
:100F50000895FC016150704001900110D8F7809510
:100F600090958E0F9F1F08950F931F93CF93DF933C
:100F7000FB01238121FD03C08FEF9FEF2CC022FFD7
:100F800016C046815781248135814217530744F4A6
:100F9000A081B1819D012F5F3F4F318320838C93CE
:100FA000268137812F5F3F4F3783268314C08B0103
:100FB000EC01FB010084F185E02D0995892BE1F618
:100FC000D80116968D919C911797019617969C9330
:100FD0008E931697CE01DF91CF911F910F910895B7
:100FE000FA01AA27283051F1203181F1E8946F935A
:100FF0006E7F6E5F7F4F8F4F9F4FAF4FB1E03ED000
:10100000B4E03CD0670F781F891F9A1FA11D680F9D
:10101000791F8A1F911DA11D6A0F711D811D911DD0
:10102000A11D20D009F468943F912AE0269F112445
:101030003019305D3193DEF6CF010895462F4770A9
:10104000405D4193B3E00FD0C9F7F6CF462F4F7004
:10105000405D4A3318F0495D31FD4052419302D062
:10106000A9F7EACFB4E0A695979587957795679508
:10107000BA95C9F700976105710508959B01AC0108
:101080000A2E06945795479537952795BA95C9F72F
:10109000620F731F841F951FA01D08952F923F920A
:1010A0004F925F926F927F928F929F92AF92BF9278
:1010B000CF92DF92EF92FF920F931F93CF93DF9324
:1010C000CDB7DEB7CA1BDB0B0FB6F894DEBF0FBE81
:1010D000CDBF09942A88398848885F846E847D84CE
:1010E0008C849B84AA84B984C884DF80EE80FD80D0
:1010F0000C811B81AA81B981CE0FD11D0FB6F89446
:0E110000DEBF0FBECDBFED010895F894FFCF06
:10110E00477265736B610050727374206E65007068
:10111E0072697469736B756A6500537669206B6FBB
:10112E007269736E69636900697A62726973616E5E
:10113E00690042617A61206A652070756E610050A7
:10114E007269736C6F6E697465207072737400319E
:10115E002F3300556B6C6F6E6974652070727374EB
:10116E0000322F3300332F33004B6F7269736E6969
:10117E006B20256400646F64616E21005072697388
:10118E006C6F6E692070727374004B6F7269736E40
:10119E00696B206E696A65004B6F7269736E696B5D
:1011AE0020256C75006A6520707265706F7A6E61AD
:1011BE007400697A62726973616E002E2E2E00526F
:1011CE006567697374726972616A20736500646120
:1011DE0020626920696772616F00496772616320DE
:1011EE0031206964004967726163203220696400AE
:1011FE004967726163203120696772616A004967CD
:10120E00726163203220696772616A004967726198
:10121E0063203120706F626A6564696F004967727E
:10122E006163203220706F626A6564696F00537566
:0E123E007374617600706F6B72656E7574006C
:00000001FF
